:020000040800F2
:1000000000000320C1170008391700083B1700083B
:100010003D1700083F1700084117000800000000C6
:10002000000000000000000000000000431700086E
:10003000451700080000000047170008491700088E
:1000400011180008111800081118000811180008EC
:1000500011180008111800081118000811180008DC
:10006000511700081118000811180008111800088D
:1000700011180008111800081118000811180008BC
:100080001118000811180008111800085D17000861
:100090006D1700087D1700088D170008111800085B
:1000A000111800081118000811180008111800088C
:1000B000111800081118000811180008111800087C
:1000C000111800081118000811180008111800086C
:1000D000111800081118000811180008111800085C
:1000E000111800081118000811180008111800084C
:1000F000111800081118000811180008111800083C
:10010000111800081118000811180008111800082B
:10011000111800081118000811180008111800081B
:10012000111800081118000811180008111800080B
:1001300011180008111800081118000811180008FB
:1001400011180008111800081118000811180008EB
:1001500011180008111800081118000811180008DB
:1001600011180008111800081118000811180008CB
:1001700011180008111800081118000800000000EC
:1001800011180008111800081118000811180008AB
:10019000111800081118000811180008111800089B
:0C01A00000000000000000001118000822
:1001AC0010B5054C237833B9044B13B10448AFF3A5
:1001BC0000800123237010BD4C01002000000000C2
:1001CC00B82A000808B5034B1BB103490348AFF329
:1001DC00008008BD0000000050010020B82A000873
:1001EC0053B94AB9002908BF00281CBF4FF0FF3192
:1001FC004FF0FF3001F0F6B8ADF1080C6DE904CE0C
:10020C0000F006F8DDF804E0DDE9022304B07047E5
:10021C002DE9F047089D0C46002B4ED194468C4599
:10022C008646B2FA82F262D94AB1C2F120039140F9
:10023C0020FA03F30CFA02FC194300FA02FE4FEA0F
:10024C001C471FFA8CF6B1FBF7F44FEA1E4307FB71
:10025C00141143EA014304FB06F199420AD91CEB41
:10026C00030304F1FF3080F01281994240F20F81B8
:10027C00023C6344591A1FFA8EF3B1FBF7F007FBEB
:10028C00101143EA014300FB06F69E420AD91CEB0F
:10029C00030300F1FF3180F0FC809E4240F2F980B4
:1002AC00634402389B1B40EA044000211DB1D3403B
:1002BC000022C5E90032BDE8F0878B4205D90DB1AB
:1002CC00C5E9000100210846F5E7B3FA83F10029DE
:1002DC0046D1A34202D39042C0F0F080861A64EB60
:1002EC0003030120002DE6D0C5E90063E3E7002AF3
:1002FC0040F09080A1EB0C044FEA1C481FFA8CF7DD
:10030C000121B4FBF8F64FEA1E4308FB164443EAFE
:10031C00044307FB06F0984208D91CEB030306F1D3
:10032C00FF3402D2984200F2CD8026461C1A1FFAE6
:10033C008EF3B4FBF8F008FB104443EA044300FBD3
:10034C0007F79F4208D91CEB030300F1FF3402D2DC
:10035C009F4200F2B0802046DB1B40EA0640A5E736
:10036C00C1F120068B4022FA06F71F4320FA06FC47
:10037C0004FA01F343EA0C03F44000FA01F8380CD8
:10038C004FEA1349B4FBF0FE1FFA87FC00FB1E4436
:10039C0049EA04440EFB0CF9A14502FA01F20AD910
:1003AC003C190EF1FF3A80F08480A14540F2818027
:1003BC00AEF1020E3C44A4EB09041FFA83F9B4FB22
:1003CC00F0F300FB134449EA044403FB0CFCA44582
:1003DC0007D93C1903F1FF3067D2A44565D9023B1C
:1003EC003C4443EA0E40A0FB0293A4EB0C049C4259
:1003FC00CE469C4651D34ED055B1B8EB0E0364EBB0
:10040C000C0404FA06F6CB401E43CC40C5E900644C
:10041C00002150E7C2F1200320FA03F10CFA02FC90
:10042C0024FA03F394400C434FEA1C4800FA02FEF2
:10043C001FFA8CF7B3FBF8F008FB1031230C43EADE
:10044C00014300FB07F1994208D91CEB030300F1AF
:10045C00FF362CD299422AD9023863445B1AA4B2D3
:10046C00B3FBF8F108FB113344EA034401FB07F337
:10047C00A34208D91CEB040401F1FF3613D2A342AA
:10048C0011D902396444E41A41EA004139E70446BF
:10049C00F0E6084606E7C845AED2B9EB020E63EBB0
:1004AC00070C0138A8E73146EDE7034699E73046DB
:1004BC00D4E7D6467FE7634402384DE70646234629
:1004CC0008460FE7023E634430E700BF03685A005A
:1004DC004CBF43F0004323F000431844704700BF67
:1004EC002DE9F84349B34F1E044615463E464FF0DE
:1004FC00000909EB060101EBD171491004EBC108AD
:10050C004046FFF7E3FF8F4203464FEAC1000FD08E
:10051C000830AB42204407D8FFF7D8FF0138A84277
:10052C0008D201F10109E4E7894506D04E1EE0E747
:10053C00AB42F9D84046BDE8F8834FF0000840467E
:10054C00BDE8F883012807D0022807D0044B002807
:10055C000CBF18460020704702487047024870478D
:10056C00190C00081D0C0008210C000830B5214B9B
:10057C0083B004468D1E1BB301A92846AFF300803F
:10058C0088B301992A46FFF7ABFF014658B3FFF732
:10059C009DFF4B68A064012B28D0002B01F10400B7
:1005AC001FDBFFF793FF002323650368E064002B38
:1005BC000DDBFFF78BFF03460020236103B030BD3A
:1005CC000D4B0E49C91AC91018460191DAE7C3F34D
:1005DC000360FFF7B7FF034628B10020236103B087
:1005EC0030BD0123E0E700230920E6E700230520C6
:1005FC00E3E700BF00000000282B0008202C0008B7
:10060C000368DA0710B5044606D49B0700F14800CE
:10061C0009D500F069FC2368590709D51A070ED5CE
:10062C00DB0613D510BD00F057FC23685907F5D431
:10063C0004F1D00000F060FC23681A07F0D404F534
:10064C00A87000F061FC2368DB06EBD404F5E870BD
:10065C00BDE8104000F09CBC0920704703460068C0
:10066C0000B11844704700BF704700BF70B5044616
:10067C000E46316C2046FFF779FF054688B9326C7F
:10068C006261236932462146012098470828F0D040
:10069C00072806D12846316CFFF7E6FF301D00F025
:1006AC000FFC02F011F900BF2DE9F0470D1DD0F839
:1006BC000C80D0F81890074614460FCDADF5727D1E
:1006CC000DF10C0CACE80F000FCDACE80F000FCD0A
:1006DC00ACE80F0095E80F0002AE4FF0000E8CE86E
:1006EC000F00C6F800E020E0336C7B614FF4F07231
:1006FC0031467AA802F068F93B697AAA3946504625
:10070C009847889B73642146CDE9006905463B46B2
:10071C003A460120C047044618BB4FF4F0727AA940
:10072C00304602F051F9082D19D1316C3846FFF7DB
:10073C001DFF09345FFA84FA05460028D4D0B36B48
:10074C0073643A46CDE900693B464AF0100101203A
:10075C00C04730B928460DF5727DBDE8F087072DEE
:10076C0005D0092528460DF5727DBDE8F087204699
:10077C00316CFFF779FF03A800F0A2FB406C7047C7
:10078C00F0B5CB6B0B6401F1040C0E460546BCE8CE
:10079C000F00F9B001AC0FC4BCE80F000FC4BCE8EB
:1007AC000F000FC49CE80F004FF0FF3784E80F00D8
:1007BC00009706E02B696A462946984708280446A4
:1007CC0008D110992846FFF7D1FE0028F2D0092055
:1007DC0079B0F0BD6846FFF713FF062CF7D1314610
:1007EC002846FFF743FF00BFC160D96B82611964D3
:1007FC000022194658E700BF70B5C66843690B6400
:10080C00AEB903690A4604460D46014602209847D4
:10081C00072805D008280FD129462046FFF726FFC8
:10082C003046296CFFF720FF281D00F049FB012200
:10083C00FFF73AFF02F048F802F046F8C2681AB126
:10084C00CA6B0A6400222FE79AE700BF704700BF0B
:10085C00836801460BB1012018477047012910D05D
:10086C0009D883B90F2A0ED800EB820218465368B8
:10087C00009A13607047033901298CBF02200120B4
:10088C007047084670470220704700BF00B585B01E
:10089C000A46002303A900911946FFF7DFFF0398CE
:1008AC0005B05DF804FB00BF012910D009D883B94D
:1008BC000F2A0ED8009900EB820209685160184685
:1008CC007047033901298CBF02200120704708466C
:1008DC0070470220704700BF10B584B0002303ACF2
:1008EC00039200940A461946FFF7DEFF04B010BDD0
:1008FC0070B5D36B136402F1040C05460C46BCE8CE
:10090C000F00ADF50E7D0DF15C0EAEE80F00BCE8EE
:10091C000F00AEE80F00BCE80F00AEE80F009CE83B
:10092C000F004FF0FF368EE80F00169610E0FFF721
:10093C00D3FF214616A8A847034616AA69460820E5
:10094C0083B9049B9847052806460CD0092809D082
:10095C0026996846FFF70AFE03466A460C2116A83C
:10096C00002BE4D0092616A8FFF74AFE30460DF5F9
:10097C000E7D70BD2DE9F04F9346CA6C89B00D46C3
:10098C0052F8041B069200F0030C002B79D00C0CCF
:10099C008DF81D400904E4B2059102EB840202219A
:1009AC002F6D8DF81C10BCF1020F08BFAA6B17F04D
:1009BC0001070CD005A9584600F084FB18B9082093
:1009CC0009B0BDE8F08F092009B0BDE8F08F1668BA
:1009DC00002EEFD000F008010191B2460297644658
:1009EC009946B9F1020F48D0B2F800A0568802F12E
:1009FC000408AA6C26F001030F2158469F18FFF734
:100A0C0045FF874237D82AF001023A44824294BF0C
:100A1C0000220122730003F002030AF0010A43EAE8
:100A2C000A03012B47D0022B31D0002BCBD114B1B0
:100A3C00002A40F0C98008F10402D2F800A0BAF1F3
:100A4C00000FCED105A95846029F00F03BFB0028B1
:100A5C00B9D1002FB3D00F215846FFF717FF0E2145
:100A6C0002465846FFF738FF674A0F215846FFF7F2
:100A7C0033FF0720A8E70022CCE7566802F10808EC
:100A8C00B7E7090205918DF81D30032188E7D8F8E6
:100A9C00006026F00043002C44D122B1019A002AB8
:100AAC005AD0002B58D0002E01DA08F1040801337B
:100ABC0008EB8302C1E7ECB9CAB1D8F80430D8F816
:100ACC000020991C4FEAD2723FF47DAF05F158011A
:100ADC000133049100F08B8008F10400FFF7BEFD98
:100AEC0004AB01462846AFF30080002857D108F12B
:100AFC000802A2E70D215846FFF7C8FE2B6A834275
:100B0C00F5D1AB6A9845F2D14046FFF7DFFC0F21D7
:100B1C0002465846FFF7E0FE2A4600215846FFF7EA
:100B2C00DBFEA6E70D2158460393FFF7AFFE2A6ABA
:100B3C00039B8242B7D1AA6A9045B4D10027042204
:100B4C00C5E90B724244AB626A63D8F80020BA4222
:100B5C0055DB01220292AAE7039408F1040A00264D
:100B6C0005F158071C460DE050460497FFF776FD3B
:100B7C000022014604AB284601360AF1040AAFF301
:100B8C000080E0B9A642EFD10D215846FFF77EFE5A
:100B9C00049BC5F82880C5E90803062014E7044621
:100BAC000D215846FFF772FE049E2862022C04BFEA
:100BBC00EE6205F12C06C5E90968062004E7234618
:100BCC00D8F80060039C6EE74046FFF77FFC08F105
:100BDC0004020446AA632846AFF3008000283FF4C1
:100BEC00F2AE22460F215846FFF776FE41E70C463F
:100BFC0058460D21FFF74AFE26462862DBE7581CB3
:100C0C0008EB800081E700BF000000000023B1E684
:100C1C000123AFE60223ADE62DE9F0430646C3B04F
:100C2C0015461C46042900F2D180DFE801F0AC51D6
:100C3C00CF2A0300002C40F0C980102A00F2C68095
:100C4C000368DC0600F1E78020AF384600F0AAF913
:100C5C00B46B394600234FF0010C0CFA03F22A4214
:100C6C00204603F1010303D050F8042B0A6004461C
:100C7C00042B01F10401F0D1B463384600F088F97B
:100C8C0099E0032C40F0A28094B204EB1243102B99
:100C9C004FEA124500F29A8003681F0700F1C380E7
:100CAC0020AF384600F052F9B26B07EBC50154B1D6
:100CBC000B46D01A01EBC401E4001D5843F8045B49
:100CCC008B42FAD12244B263384600F01DF972E02F
:100CDC00012C4FEA124895B271D0052C76D108EB55
:100CEC000509B9F1200F71D8B8F10F0F72D8B9F10D
:100CFC00100F036800F29F80D90708D523F0010379
:100D0C00304643F0020340F8483B00F0F1F820AFC6
:100D1C00384600F0EDF8B36B002D00F0B9806D0093
:100D2C006A1E07EBC80100250132043903EB82026D
:100D3C0053F8040B41F8040F9342F9D1002D00F045
:100D4C00A1804146102938BF10216B0010396F4625
:100D5C00013B07EBC1010133043902EB830352F869
:100D6C00040B41F8040F9A42F9D1012C00F0888051
:100D7C00B8F10F0FB26302D820A800F0B5F83846CE
:100D8C0000F0BAF817E00CBB806B23461FFA82FC0C
:100D9C000124371D04FA03F111EA0C0F024604D0AA
:100DAC0052F8041B47F8231010460133102BF1D1D5
:100DBC00AC0400D4B063002043B0BDE8F08308EB72
:100DCC000503102B02D8B8F1100F14D1022043B038
:100DDC00BDE8F083002DEED003685A075CD46F4653
:100DEC00384600F08DF8B26B6B00A8F11001013B96
:100DFC0007EBC101AFE70368DA0759D420AF3846D7
:100E0C0000F06EF8B36B002D89D10433B363384610
:100E1C0000F062F8CFE723F01003036000F5E870F0
:100E2C0000F0C0F810E723F00803036000F5A87089
:100E3C0000F08CF834E7D90708D523F0010343F010
:100E4C00020340F8483B00F053F83368580706D5C6
:100E5C00304623F0040340F8D03B00F051F820AFAB
:100E6C00384600F045F8684600F04AF8C8F1100220
:100E7C005200B36BA9F11005013A07EBC80153E717
:100E8C0020AFC2E7012CC0D0B8F10F0FB36392D8DA
:100E9C00384600F029F88EE723F0040340F8D03BE5
:100EAC006F4600F02DF8384600F02AF8B26B9BE73D
:100EBC00304623F0030340F8483B00F011F89DE75F
:100ECC0000F1340191E838009C46A6464CF8045DCC
:100EDC0090E8FF0FE54600BD90EC210B704700BF7A
:100EEC0080EC210B704700BF90EC200B704700BFCB
:100EFC0080EC200B704700BFD0EC200B704700BF7C
:100F0C00C0EC200B704700BFF0EC0201F0EC0211BA
:100F1C00F0EC0221F0EC0231F0EC0241F0EC025169
:100F2C00F0EC0261F0EC0271F0EC0281F0EC029159
:100F3C00F0EC02A1F0EC02B1F0EC02C1F0EC02D149
:100F4C00F0EC02E1F0EC02F1704700BFE0EC0201C2
:100F5C00E0EC0211E0EC0221E0EC0231E0EC0241A9
:100F6C00E0EC0251E0EC0261E0EC0271E0EC028199
:100F7C00E0EC0291E0EC02A1E0EC02B1E0EC02C189
:100F8C00E0EC02D1E0EC02E1E0EC02F1704700BFD2
:100F9C00B0FC0181B0FC0191B0FC01A1B0FC01B12D
:100FAC00704700BFA0FC0181A0FC0191A0FC01A135
:100FBC00A0FC01B1704700BFEC4600B52DE9005014
:100FCC002DE9FF1F4FF000032DE90C0001A9FFF7DD
:100FDC00D7FBDDF840E012B0704700BFEC4600B51F
:100FEC002DE900502DE9FF1F4FF000032DE90C00F7
:100FFC0001A9FFF701FCDDF840E012B0704700BF1B
:10100C00EC4600B52DE900502DE9FF1F4FF0000311
:10101C002DE90C0001A9FFF711FCDDF840E012B03E
:10102C00704700BFEC4600B52DE900502DE9FF1FBD
:10103C004FF000032DE90C0001ABFFF7D5FBDDF8F9
:10104C0040E012B0704700BFEC4600B52DE90050EF
:10105C002DE9FF1F4FF000032DE90C0001AAFFF74B
:10106C0047FCDDF840E012B0704700BF027A03463F
:10107C007AB9427AA2B14168013A10B44272086856
:10108C0003220C1D1A7202025C60000E10BC1A6066
:10109C0070470068013A1A7202021A60000E70471B
:1010AC00B020704700B585B0002303AA0092194602
:1010BC000C22FFF7D3FB039805B05DF804FB00BFCF
:1010CC00F0E700BF2DE9F043064685B00D464FF022
:1010DC0000082846FFF7CAFFB028044600F0DA8063
:1010EC00070646D500F0F003802B5ED0B02B73D0F2
:1010FC001BD8902B00F09B80A02B12D1C34303F084
:10110C0007034FF47F621A41010702F47F6201D595
:10111C0042F48042002319463046FFF77DFD00283B
:10112C00D7D0092005B0BDE8F083C02B6DD1C628FF
:10113C0000F09380C72800F0B28000F0F803C02BB9
:10114C0000F0D280C82800F0DD80C928E9D12846FB
:10115C00FFF78CFF020300F00F0002F47022013045
:10116C000243012105233046FFF756FD0028B0D07D
:10117C00D7E78300DBB21F1D0DF10C0900231946C4
:10118C00CDF800900D223046FFF768FB039BCDF89D
:10119C00009060064CBFDF1BFF1800230D22194680
:1011AC0030460397FFF780FB93E72846FFF75EFF77
:1011BC0024022043B0F5004FB3D004010023A2B2A7
:1011CC0019463046FFF728FD0028AAD114F4004F29
:1011DC0018BF4FF001087CE7B12851D0B22800F0BD
:1011EC00AD80B3286DD000F0FC03B42B99D000F087
:1011FC0007020132012342F4002219463046FFF760
:10120C000BFD00283FF465AF8BE700F0F803D02B03
:10121C0087D100F007020132052342F4002201219C
:10122C003046FFF7F9FC00283FF453AF79E700F0A4
:10123C000D030D2B3FF475AF03AF002300F00F022D
:10124C00194600973046FFF709FB002300970D2243
:10125C0019463046FFF728FB3BE72846FFF706FF09
:10126C00020300F00F00013002F47022032302434A
:10127C0019463046FFF7D0FC00283FF42AAF50E760
:10128C002846FFF7F3FE431EDBB20E2B02467FF619
:10129C0041AF46E7B8F1000F40D0002042E72846A6
:1012AC00FFF7E4FE431EDBB20E2B02463FF639AFCE
:1012BC00002304213046FFF7AFFC00283FF409AFB0
:1012CC002FE72846FFF7D2FE020300F00F00013093
:1012DC0002F470220123024319463046FFF79CFCAE
:1012EC0000283FF4F6AE1CE700F00F020132032396
:1012FC0042F4202219463046FFF78EFC00283FF4BA
:10130C00E8AE0EE72846FFF7B1FE00F0F00200F061
:10131C000F031032013343EA023222E703AC434697
:10132C0041460E2200943046FFF798FA009443464B
:10133C000F2241463046FFF7B7FAAEE700230DF116
:10134C000C090D221946CDF800903046FFF786FAAD
:10135C002846FFF78BFE0206039C4FF002070BD5C5
:10136C0000F07F00B840044428460394FFF77EFE4B
:10137C00030607F10707F3D400FA07F204F501742A
:10138C00224400230392CDF800900D2219463046DA
:10139C00FFF78AFA9DE600BF10B5C26C536884B0A3
:1013AC004FF0030C08321C0208461B0E01A90194D5
:1013BC0002928DF80CC08DF80D30FFF783FE04B04F
:1013CC0010BD00BF08B5FFF77BFE806C08BD00BFE9
:1013DC0008B5FFF775FEC06CC379023300EB8300D0
:1013EC0008BD00BF704700BF08B50E480E4B036028
:1013FC000323436000238360C3604FF430220261F7
:10140C004FF4801242610376012242768376C376D2
:10141C000377437700F04AFA00B908BD00F0FDF8F5
:10142C00FBE700BF680100200064004010B588B0E5
:10143C000023039304930593069307930268254BAB
:10144C009A4201D008B010BD0024019403F5EA3390
:10145C001A6C42F000721A641A6C02F0007201925B
:10146C00019A02941A6B42F002021A631B6B03F08E
:10147C0002030293029B4FF44073039302230493E1
:10148C00032306930923079303A9134800F0BAFD1D
:10149C0022462146132000F083FD132000F090FD1E
:1014AC0022462146142000F07BFD142000F088FD1C
:1014BC0022462146152000F073FD152000F080FD1A
:1014CC0022462146162000F06BFD162000F078FD18
:1014DC00B8E700BF006400400004024010B58AB0B9
:1014EC0028220021684601F0F6F90123079308939E
:1014FC00064C6946204600F07FFA204600F01AFBA5
:10150C000221204600F0C2FB0AB010BD6801002089
:10151C0008B5054B834200D008BD4FF48041034809
:10152C0000F07CFEF8E700BF6801002000140240C8
:10153C0008B5034B034A0449044800F029FB08BDD5
:10154C00980100209001002000000020680100207C
:10155C0030B58BB000240594069407940894099434
:10156C000194274B1A6B42F002021A631A6B02F0B9
:10157C0002020192019A02941A6B42F001021A6360
:10158C001A6B02F001020292029A03941A6B42F057
:10159C0080021A631A6B02F080020392039A04947D
:1015AC001A6B42F020021A631B6B03F020030493A6
:1015BC00049B144D22464FF48041284600F028FE2F
:1015CC00042305934FF488130693079405A90E483A
:1015DC0000F018FD4FF48043059301230693079404
:1015EC00089405A9284600F00DFD22462146082046
:1015FC0000F0D6FC082000F0E3FC0BB030BD00BFBF
:10160C00003802400014024000040240042800D0BC
:10161C00704708B5FFF78CFF08BD72B6FEE70000F7
:10162C0000B595B03022002108A801F054F9002330
:10163C00039304930593069307930193234A116C28
:10164C0041F080511164126C02F080520192019AA7
:10165C0002931F4B1A6842F440421A601B6803F451
:10166C0040430293029B012308934FF48033099368
:10167C0002230E934FF480020F9206221092B42292
:10168C00119212930423139308A800F01DFEB0B915
:10169C0000F0DCFDA8B90F2303930223049300236D
:1016AC0005934FF4A05306934FF4805307930521F1
:1016BC0003A801F059F830B915B05DF804FBFFF739
:1016CC00ACFFFFF7AAFFFFF7A8FF00BF00380240EE
:1016DC000070004008B500F0BDF8FFF7A1FFFFF760
:1016EC0037FFFFF781FE00F001F8FEE708B5FFF7C2
:1016FC00F5FEFEE782B0002100910B4B5A6C42F4D0
:10170C0080425A645A6C02F480420092009A019111
:10171C001A6C42F080521A641B6C03F080530193D4
:10172C00019B02B0704700BF00380240FEE7FEE7A5
:10173C00FEE7FEE7FEE770477047704708B500F01C
:10174C00A3F808BD08B5042000F072FD08BD000028
:10175C0008B5024800F0B8FA08BD00BF68010020C7
:10176C0008B5024800F0B0FA08BD00BF68010020BF
:10177C0008B5024800F0A8FA08BD00BF68010020B7
:10178C0008B5024800F0A0FA08BD00BF68010020AF
:10179C000120704708B501F0EBF8162303604FF0F9
:1017AC00FF3008BD08B54FF0FF31FFF7F3FFFEE740
:1017BC0070470000DFF834D00D480E490E4A002364
:1017CC0002E0D458C4500433C4188C42F9D30B4AE9
:1017DC000B4C002301E013600432A242FBD3FFF751
:1017EC00E7FF01F0CBF8FFF775FF7047000003200F
:1017FC00000000204C0100202C2C00084C01002083
:10180C0074040020FEE7000010B504460E4B1A7855
:10181C004FF47A73B3FBF2F30C4A1068B0FBF3F09D
:10182C0000F0DCFB68B90F2C01D901200AE0002282
:10183C0021464FF0FF3000F0B3FB054B1C6000203D
:10184C0000E0012010BD00BF1C000020180000208B
:10185C002000002008B50B4B1A6842F400721A6085
:10186C001A6842F480621A601A6842F480721A6034
:10187C00032000F083FB0F20FFF7C6FFFFF73AFFB2
:10188C00002008BD003C0240034A1168034B1B7842
:10189C000B441360704700BF9C0100201C0000200B
:1018AC00014B1868704700BF9C010020002800F015
:1018BC00A18038B5044690F82030D3B12268136863
:1018CC0043F001031360FFF7EBFF054623685A68EA
:1018DC0012F0010F10D1FFF7E3FF401B0A28F5D9D6
:1018EC00636A43F400336362052384F820300120DB
:1018FC0038BDFFF79BFDE1E71A6822F002021A607F
:10190C00FFF7CEFF054623685A6812F0020F0DD080
:10191C00FFF7C6FF401B0A28F5D9636A43F400336E
:10192C006362052384F820300120E1E7227E012A3E
:10193C003DD01A6822F080021A60637E012B3BD0E6
:10194C002268136823F040031360A37E012B39D067
:10195C002268136823F020031360E37E012B37D039
:10196C002268136843F010031360237F012B35D0DA
:10197C002268136823F008031360637F012B33D0B4
:10198C002268136823F004031360A368E26813430E
:10199C0022691343626913436268013A2168134355
:1019AC00CB6100206062012384F82030A0E71A6824
:1019BC0042F080021A60C0E72268136843F04003CB
:1019CC001360C2E72268136843F020031360C4E776
:1019DC002268136823F010031360C6E722681368AB
:1019EC0043F008031360C8E72268136843F004034C
:1019FC001360CAE70120704790F82030013BDBB23E
:101A0C00012B05D9436A43F48023436201207047BC
:101A1C0010B5474BD3F8002242F00102C3F8002264
:101A2C00D3F8002222F47C52C3F80022D3F800220F
:101A3C00486A42EA0022C3F800224A6902F01F02F7
:101A4C00012000FA02F2D3F81C026FEA020C20EA21
:101A5C000200C3F81C02CB69CBB9354BD3F80C028E
:101A6C000CEA0000C3F80C028C884869D1F80CE031
:101A7C0044EA0E44483043F830408C68088840EA09
:101A8C0004404C6904F1480E03EBCE035860CB695B
:101A9C00012B1ED08B69002B35D12548D0F8043290
:101AAC000CEA0303C0F804320B699BBB2048D0F846
:101ABC0014320CEA0303C0F814320B6A012B30D039
:101ACC001B4AD2F8003223F00103C2F80032002086
:101ADC0010BD174BD3F80C021043C3F80C028C88C2
:101AEC004869D1F800E044EA0E44483043F83040ED
:101AFC0088894C69D1F808E040EA0E40483403EB81
:101B0C00C4035860C6E70A48D0F804321343C0F83F
:101B1C000432C9E70648D0F814321343C0F8143223
:101B2C00CBE70349D1F81C321343C1F81C32C7E789
:101B3C000064004070B5044690F82050EDB2012DC1
:101B4C0006D0436A43F4002343620125284670BD46
:101B5C00022380F820300268136823F0010313601D
:101B6C00FFF79EFE064623685B6813F0010F0CD04E
:101B7C00FFF796FE831B0A2BF5D9636A43F40033F7
:101B8C006362052384F82030E0E700256562DDE719
:101B9C0030B590F820C00468A4680CF1FF3C5FFAE3
:101BAC008CFCBCF1010F6BD814F0E05F62D0C4F375
:101BBC00016CBCF1020F05D9436A43F40003436284
:101BCC00012062E0012404FA0CF41C608B68002BE9
:101BDC003DD10D68CB68046843EA45550CF11803F8
:101BEC001B01E55003680C690CF1180E03EB0E1386
:101BFC005C600B7D012B35D0D17993791B0443EAC2
:101C0C000163517943EA012314790168234301EB01
:101C1C000C11C1F88C31D17893781B0443EA016321
:101C2C00517843EA0123117802680B4302EB0C1242
:101C3C00C2F8883102680CF1180C4FEA0C1C52F8EF
:101C4C000C3043F0010342F80C3000201DE04C68CE
:101C5C0043EAC403CC6823430CF11804240105683F
:101C6C002B51BFE7036803EB0E13596841F48071E5
:101C7C005960C1E7436A43F400134362012004E056
:101C8C00436A43F480234362012030BD90F8203036
:101C9C00013BDBB2012B05D9436A43F48023436239
:101CAC0001207047026853690B4353610020704751
:101CBC007047704770477047704770477047704760
:101CCC0070477047704770472DE9F84F0546036819
:101CDC005C69D3F804809F68D3F80CB0D3F810A0DB
:101CEC00D3F8189014F001063BD017F0010616D06B
:101CFC0001229A6017F0020F08D117F0040F0CD1D3
:101D0C0017F0080606D04FF4805608E0FFF7D0FF16
:101D1C00002604E0FFF7CFFF01E04FF4006617F454
:101D2C00807F0DD02B684FF480729A6017F4007F7F
:101D3C0040F0868017F4806F00F0868046F40056E1
:101D4C0017F4803F0DD02B684FF480329A6017F453
:101D5C00003F40F0838017F4802F00F0838046F41E
:101D6C00004614F0080F07D01BF0100F04D046F4F7
:101D7C0000762B681022DA6014F0040F02D01BF0EE
:101D8C00080F79D114F0020F04D02B68DB6813F024
:101D9C00030F78D114F0400F07D01AF0100F04D0B5
:101DAC0046F480662B6810221A6114F0200F02D0C2
:101DBC001AF0080F6BD114F0100F04D02B681B69AC
:101DCC0013F0030F6AD114F4003F02D018F0100F77
:101DDC0068D114F4803F02D018F0080F69D114F4C4
:101DEC00004F7AD018F0040F74D014F4807F04D014
:101DFC0019F0010F01D046F0010614F4007F04D055
:101E0C0019F0020F01D046F0020614F4806F04D0D2
:101E1C0019F0040F01D046F0040614F4006F59D0E9
:101E2C0019F0700956D0B9F1400F65D058D8B9F1F6
:101E3C00200F5ED0B9F1300F42D146F0200644E0BD
:101E4C002846FFF736FF7BE717F4006F02D046F405
:101E5C00804675E72846FFF72FFF71E72846FFF706
:101E6C0029FF7EE717F4002F02D046F4803678E77E
:101E7C002846FFF722FF74E72B680822DA60284611
:101E8C00FFF71CFF7EE72846FFF742FB82E72B6833
:101E9C0008221A612846FFF713FF8CE72846FFF744
:101EAC000EFF90E72B6810225A602846FFF709FFB7
:101EBC008FE72B6808225A602846FFF703FF8EE74E
:101ECC00B9F1100F01D146F008062A68936923F086
:101EDC00700393612B6804225A609EB9BDE8F88F99
:101EEC00B9F1500F0BD0B9F1600FEED146F48076FA
:101EFC00EBE746F01006E8E746F04006E5E746F06B
:101F0C008006E2E76B6A33436B622846FFF7DBFE21
:101F1C00E4E70000002808DB0901C9B200F16040C9
:101F2C0000F5614080F80013704700F00F000901C4
:101F3C00C9B2014B1954704714ED00E000B500F024
:101F4C000700C0F1070CBCF1040F28BF4FF0040CC4
:101F5C00031D062B0FD9C31E4FF0FF3E0EFA0CF0DB
:101F6C0021EA000199400EFA03FE22EA0E0241EA30
:101F7C0002005DF804FB0023EEE70000074AD3687B
:101F8C0023F4E0631B041B0C000200F4E060034329
:101F9C0043F0BF6343F40033D360704700ED00E0BF
:101FAC0010B50446054BD868C0F30220FFF7C6FFF6
:101FBC0001462046FFF7AEFF10BD00BF00ED00E06C
:101FCC00002807DB00F01F02400901239340024A5E
:101FDC0042F82030704700BF00E100E00138B0F15A
:101FEC00807F0BD24FF0E0235861054AF02182F834
:101FFC0023100020986107221A6170470120704756
:10200C0000ED00E000230F2B00F2F98030B583B017
:10201C0069E085684FEA430E032404FA0EF425EABE
:10202C000405CC6804FA0EF42C438460446824EA5A
:10203C0002044A68C2F300129A402243426060E0F4
:10204C00DC08083450F8242003F00705AD004FF0ED
:10205C000F0E0EFA05FE22EA0E0E0A69AA4042EA9B
:10206C000E0240F8242060E0092200E0002202FA6F
:10207C000EF22A430234624D45F82420614A9468DA
:10208C006FEA0C0224EA0C05D1F804E01EF4801F60
:10209C0001D04CEA04055B4CA560E46802EA040537
:1020AC00D1F804E01EF4001F01D04CEA0405554C95
:1020BC00E560646802EA0405D1F804E01EF4003F10
:1020CC0001D04CEA04054F4C6560246822404D68F1
:1020DC0015F4803F01D04CEA04024A4C22600133D3
:1020EC000F2B00F28A8001229A400C6804EA020C41
:1020FC0032EA0404F3D14C6804F00304013C012CD3
:10210C0087D94A6802F00302032A09D0C4685D002B
:10211C000322AA4024EA02048A68AA402243C2602D
:10212C004A6802F00302022A8AD004684FEA430E7E
:10213C00032202FA0EF224EA02044A6802F00302B5
:10214C0002FA0EF2224302604A6812F4403FC6D0F3
:10215C00002201922C4A546C44F480445464526C16
:10216C0002F480420192019A9C08A51C244A52F860
:10217C00255003F0030E4FEA8E0E0F2202FA0EF2D8
:10218C0025EA0205214A90423FF470AF02F58062C5
:10219C00904222D002F58062904220D002F58062FB
:1021AC0090421ED002F5806290421CD002F58062F3
:1021BC0090421AD002F58062904218D002F58062EB
:1021CC00904216D002F58062904214D002F58062E3
:1021DC0090423FF449AF0A2249E7012247E7022225
:1021EC0045E7032243E7042241E705223FE70622A5
:1021FC003DE707223BE7082239E703B030BD7047C3
:10220C0000380140003C0140003802400000024010
:10221C000AB181617047090481617047436901EA21
:10222C00030221EA030141EA024181617047000087
:10223C0008B5054B5B69034200D108BD024B5861E0
:10224C00FFF7E4F9F9E700BF003C014010B582B09C
:10225C0000230193194B1A6C42F080521A641B6CC8
:10226C0003F080530193019B154B01221A64FFF775
:10227C0017FB0446134B5B6813F4803F08D1FFF740
:10228C000FFB001BB0F57A7FF4D9032002B010BD10
:10229C000B4B01225A64FFF703FB0446094B5B68A6
:1022AC0013F4003F07D1FFF7FBFA001BB0F57A7F60
:1022BC00F4D90320EAE70020E8E700BF0038024029
:1022CC0000000E4200700040002800F0E08170B564
:1022DC0082B00446036813F0010F3BD09F4B9B6800
:1022EC0003F00C03042B2CD09C4B9B6803F00C03C9
:1022FC00082B21D06368B3F5803F4FD0B3F5A02FE6
:10230C0052D0964B1A6822F480321A601A6822F462
:10231C0080221A606368002B50D0FFF7C1FA054683
:10232C008E4B1B6813F4003F14D1FFF7B9FA401B16
:10233C006428F5D90320B1E1884B5B6813F4800F56
:10234C00D8D0864B1B6813F4003F03D06368002B76
:10235C0000F09F81236813F0020F54D07F4B9B68D1
:10236C0013F00C0F3ED07D4B9B6803F00C03082B35
:10237C0033D0E368002B68D0794B01221A60FFF749
:10238C008FFA0546754B1B6813F0020F54D1FFF7FB
:10239C0087FA401B0228F5D903207FE16F4A1368A6
:1023AC0043F480331360B5E76C4B1A6842F4802217
:1023BC001A601A6842F480321A60ABE7FFF770FAC1
:1023CC000546664B1B6813F4003FC3D0FFF768FA51
:1023DC00401B6428F5D9032060E1604B5B6813F463
:1023EC00800FC6D15D4B1B6813F0020F03D0E3685E
:1023FC00012B40F05081594A136823F0F8032169EE
:10240C0043EAC1031360236813F0080F42D06369D9
:10241C006BB3534B0122C3F8802EFFF741FA0546EC
:10242C004E4B5B6F13F0020F34D1FFF739FA401BA0
:10243C000228F5D9032031E1484A136823F0F80348
:10244C00216943EAC1031360DDE7454B00221A60A2
:10245C00FFF726FA0546414B1B6813F0020FD2D04A
:10246C00FFF71EFA401B0228F5D9032016E13C4B5E
:10247C000022C3F8802EFFF713FA0546374B5B6F2B
:10248C0013F0020F06D0FFF70BFA401B0228F5D908
:10249C00032003E1236813F0040F77D02F4B1B6C40
:1024AC0013F0805F33D1002301932C4B1A6C42F054
:1024BC0080521A641B6C03F080530193019B01251D
:1024CC00284B1B6813F4807F23D0A368012B34D0D6
:1024DC00052B38D0214B1A6F22F001021A671A6FA4
:1024EC0022F004021A67A368002B3DD0FFF7D8F93D
:1024FC0006461A4B1B6F13F0020F46D1FFF7D0F9AB
:10250C00801B41F288339842F3D90320C6E00025A2
:10251C00D6E7144A136843F480731360FFF7C0F9CD
:10252C000646104B1B6813F4807FCED1FFF7B8F929
:10253C00801B0228F5D90320B0E0084A136F43F042
:10254C0001031367CFE7054B1A6F42F004021A67B9
:10255C001A6F42F001021A67C5E700BF003802404B
:10256C000000474200700040FFF79AF90646524BB4
:10257C001B6F13F0020F08D0FFF792F9801B41F28A
:10258C0088339842F3D9032088E0EDB9A369002B76
:10259C0000F08380484A926802F00C02082A51D05D
:1025AC00022B17D0454B00221A66FFF779F9044627
:1025BC00414B1B6813F0007F42D0FFF771F9001BF1
:1025CC000228F5D9032069E03B4A136C23F08053B1
:1025DC001364DBE7394B00221A66FFF761F90546F5
:1025EC00354B1B6813F0007F06D0FFF759F9401BE1
:1025FC000228F5D9032051E0E369226A1343626A89
:10260C0043EA8213A26A5208013A43EA0243E26A9D
:10261C0043EA0263284A5360284B01221A66FFF7EB
:10262C003FF90446244B1B6813F0007F06D1FFF7DB
:10263C0037F9001B0228F5D903202FE000202DE0EC
:10264C0000202BE0012B2BD01B4B5B6803F480018B
:10265C00E269914226D103F03F02216A8A4223D1DA
:10266C00616A47F6C0721A40B2EB811F1ED103F4A7
:10267C004031A26A5208013AB1EB024F18D103F073
:10268C007063E26AB3EB026F14D1002006E0012004
:10269C007047012002E0012000E0002002B070BD74
:1026AC000120FBE70120F9E70120F7E70120F5E71E
:1026BC000120F3E70120F1E7003802400000474217
:1026CC0008B5264B9B6803F00C03042B41D0082B58
:1026DC0041D1224B5A6802F03F025B6813F4800F21
:1026EC0012D01E4B5968C1F388111D480023A1FB61
:1026FC000001FDF775FD194B5B68C3F30143013312
:10270C005B00B0FBF3F027E0144B5868C0F3881063
:10271C004FEA401CBCEB000C6EEB0E0E4FEA8E1316
:10272C0043EA9C634FEA8C11B1EB0C0163EB0E0393
:10273C00DB0043EA5173C90011EB000C43F10003B9
:10274C00990200234FEA8C2041EA9C51FDF748FD89
:10275C00D1E7034800E0034808BD00BF0038024041
:10276C00001BB7000024F400002800F09B8070B51B
:10277C000D4604464F4B1B6803F00F038B4208D2E7
:10278C00CBB24C4A1370136803F00F038B4240F02A
:10279C008B80236813F0020F17D013F0040F04D0B2
:1027AC00454A936843F4E0539360236813F0080F91
:1027BC0004D0414A936843F4604393603E4A936863
:1027CC0023F0F003A1680B439360236813F0010F0F
:1027DC0032D06368012B21D09A1E012A25D9364AA2
:1027EC00126812F0020F61D033498A6822F003029A
:1027FC0013438B60FFF754F806462F4B9B6803F08E
:10280C000C036268B3EB820F16D0FFF749F8801BFC
:10281C0041F288339842F0D9032042E0264A1268EC
:10282C0012F4003FE0D101203BE0234A126812F081
:10283C00007FD9D1012034E01E4B1B6803F00F033D
:10284C00AB4207D9EAB21B4B1A701B6803F00F039B
:10285C00AB422DD1236813F0040F06D0164A9368AF
:10286C0023F4E053E1680B439360236813F0080FE3
:10287C0007D0114A936823F46043216943EAC103EA
:10288C009360FFF71DFF0C4B9B68C3F303130B4ABC
:10289C00D35CD8400A4B18600A4B1868FEF7B4FF9B
:1028AC00002070BD012070470120FAE70120F8E7F5
:1028BC000120F6E7003C024000380240D02A000814
:1028CC00180000202000002008B5062000F034F885
:1028DC000120FEF767FF02440346934200D1704784
:1028EC0003F8011BF9E71F2938B505460C4604D936
:1028FC00162303604FF0FF3038BDD0F8182112B109
:10290C0052F821304BB9284600F030F822460146E7
:10291C002846BDE8384000F017B8012B0AD0591CE6
:10292C0003D1162303600120E6E7002142F82410AE
:10293C00204698470020DFE7024B01461868FFF756
:10294C00D2BF00BF2400002038B5074D0023044639
:10295C00084611462B60FEF71DFF431C02D12B6865
:10296C0003B1236038BD00BFD8020020FEF710BFB2
:10297C00014B1868704700BF2400002070B50D4D46
:10298C000D4C641BA4100026A64209D10B4D0C4C17
:10299C0000F08CF8641BA4100026A64205D170BD73
:1029AC0055F8043B98470136EEE755F8043B984739
:1029BC000136F2E7202C0008202C0008202C0008FF
:1029CC00282C0008704770470A44914200F1FF33ED
:1029DC0000D1704710B511F8014B03F8014F91422B
:1029EC00F9D110BD024B13B1024800F005B8704785
:1029FC0000000000112A0008002301461A46184660
:102A0C0000F014B838B5074D074C641BA4101CB962
:102A1C00BDE8384000F050B8013C55F824309847D8
:102A2C00F5E700BF282C00082C2C00082DE9F047F6
:102A3C00DFF86CA00646DAF8000098460F4691467F
:102A4C00FFF7C0FF174B1C680CB9174C1C6065686E
:102A5C00DAF800001F2D05DDFFF7B5FF4FF0FF3052
:102A6C00BDE8F0879EB104EB85010122C1F8889086
:102A7C00D4F88831AA401343C4F88831022EC1F827
:102A8C00088102BFD4F88C311343C4F88C316B1C11
:102A9C000235636044F82570FFF795FF0020DFE7EF
:102AAC0048010020E0020020E4020020F8B500BF3D
:102ABC00F8BC08BC9E467047F8B500BFF8BC08BC13
:042ACC009E4670476B
:102AD00000000000000000000102030406070809CE
:102AE00008B10181B0B000840000000008B101818C
:102AF000B0B000840000000008B10181B0B00084D3
:102B00000000000008B10181B0B0008400000000A6
:102B100008B10181B0B000840000000008B101815B
:082B2000B0B0008400000000C9
:102B2800F4D6FF7F0100000048DAFF7FB0A90280D9
:102B3800D4DAFF7FB0B0A88024DBFF7F010000005B
:102B480030DBFF7FB0B0AA8064DBFF7FAE71B2805C
:102B580030DCFF7F010000002CDCFF7FAB3F3880BA
:102B68008CDCFF7F0100000094DCFF7FB0B0AA80FE
:102B7800D0DCFF7F010000007CDDFF7FAA0DB28062
:102B8800F8DDFF7FB0AF088088E0FF7F010000001C
:102B98008CE0FF7FAD3F02802CE3FF7F0100000047
:102BA80008E5FF7F008404801CE5FF7F010000002A
:102BB80018E5FF7FB0AD0480E4E7FF7FB0A803808D
:102BC80008E8FF7F44FFFF7F0CE8FF7F48FFFF7F97
:102BD80018E8FF7F0100000008E9FF7FB0A809801E
:102BE80034E9FF7FF4FEFF7F4CE9FF7FF8FEFF7FAB
:102BF80064E9FF7F0100000018EAFF7FF4FEFF7F11
:102C08001EEAFF7F01000000E8EAFF7FF0FEFF7F79
:082C1800E8EAFF7F0100000063
:082C2000F1290008D1010008B0
:042C2800AD010008F2
:102C2C000001000000010000000000000000000096
:102C3C0008000000000000000024F4000100000067
:102C4C00100000002800002000000000A00100205F
:102C5C0008020020700200200000000000000000AC
:102C6C000000000000000000000000000000000058
:102C7C000000000000000000000000000000000048
:102C8C000000000000000000000000000000000038
:102C9C000000000000000000000000000000000028
:102CAC000000000000000000000000000000000018
:102CBC000000000000000000000000000000000008
:102CCC0000000000000000000000000000000000F8
:102CDC0000000000000000000000000000000000E8
:102CEC0001000000000000000E33CDAB34126DE685
:102CFC00ECDE05000B0000000000000000000000EE
:102D0C0000000000000000000000000000000000B7
:102D1C0000000000000000000000000000000000A7
:102D2C000000000000000000000000000000000097
:102D3C000000000000000000000000000000000087
:102D4C000000000000000000000000000000000077
:102D5C000000000000000000000000000000000067
:0C2D6C000000000000000000DC0200205D
:04000005080017C117
:00000001FF
